:0A091F00010B0002080000010A01AC
:1008DB00D284D285D286D287C28012090D2084059C
:1008EB00750B66800E208505750B99800620860892
:1008FB00750BFFE4F50A80E52087E2750A01C280DB
:02090B0080DB8F
:10090D005389F0438901E4F58CF58AD2A9D2AFD28F
:02091D008C222A
:03000B0002088C5C
:10088C00C0E0C0D075D000C007C28C308019AF0A50
:10089C00EF3395E04F7010C280C374FF950BF509D0
:1008AC00E49400F508801320801AAF0AEF3395E02A
:1008BC004F7011D280F508850B09758CFFC374FF3E
:0F08CC009509F58AC28DD28CD007D0D0D0E032FA
:03000000020800F3
:0C080000787FE4F6D8FD75810B020847F4
:10080C000208DBE493A3F8E493A34003F68001F21F
:10081C0008DFF48029E493A3F85407240CC8C333ED
:10082C00C4540F4420C8834004F456800146F6DFBC
:10083C00E4800B010204081020408090091FE47E24
:10084C00019360BCA3FF543F30E509541FFEE493B1
:10085C00A360010ECF54C025E060A840B8E493A378
:10086C00FAE493A3F8E493A3C8C582C8CAC583CAA3
:10087C00F0A3C8C582C8CAC583CADFE9DEE780BE5B
:0109290000CD
:00000001FF
